:1000000005308A00AD2D0000831A0A28A400030ED3
:10001000A5000F288312A400030EA500A5140A084A
:10002000AB008A018313A40E0408A6002008A700D1
:100030002108A8002208A9002308AA0083128B1E09
:1000400023280B193C290B1E27288B1840288C309D
:100050008400001C2D280C1874282608840027080A
:10006000A0002808A1002908A2002A08A3002B0844
:100070008A00250E83008312240EA518831609001A
:100080008B100B128B12B601053090008E01FC30E4
:100090008F00B7308E0083160C148312C801311400
:1000A000B301B401B501B701B201BB018B108A11D4
:1000B0002D28B117420B61283408C9003308CA0043
:1000C0006A28C208031D6A283508C9003408CA0016
:1000D0003308CB0010108B108B100B1683160C10EE
:1000E00083128B16BB010800CE011430CD003112F3
:1000F000311CB528831605158312B1100519B114EA
:100100003111B11831153110311D9C28311D9B283A
:10011000831605158312311105193115CD08031DFC
:100120009428CE08031999284D080319CE03CD034E
:100130009A2831118628AD283119AD288316051566
:1001400083123111051931154D080319CE03CD0B5A
:10015000AC28CE08031931159C28053090008E017B
:10016000FF308F0069308E00372983160515831202
:10017000B1110519B1153114053090008E01FE3012
:100180008F00A1308E003112B20A4C10CC10320810
:100190001A3C031C2E29B118D428B11DD4280314ED
:1001A000B30DB40DB50D2D29B11CDD28B119DD2815
:1001B0000310B30DB40DB50D2D29B11C2429B11DAB
:1001C00024293208113A0319EF28033A0319F128B8
:1001D0000B3A03190529033A031907291A29C80AF2
:1001E0002329C80A4808023C031DFD280130C2002B
:1001F00059204C144C11CC10042931168B100B16BD
:1002000083160C1083128B162329C80A2329C80AC7
:100210004808023C031D1229C20159204C104C15FC
:10022000CC10192931168B100B1683160C10831263
:100230008B162329311610108B100B1683160C10F9
:1002400083128B16BB012D293116BB0110108B10A8
:100250000B1683160C1083128B163729B116BB01AF
:1002600010108B100B1683160C1083128B16003097
:10027000A1000C108A112D28CC15BD0B4529043086
:10028000BD003B08F93C0318BB0A0B118A112D284D
:10029000053083169B009C131C141A088312DB0084
:1002A000043083169B009C131C141A088312DC0074
:1002B0005B08D0005C08CF000230A000A00B5E29D4
:1002C0006129000083169B019C131C141A088312D9
:1002D000D6000230A000A00B6B296E29000001306F
:1002E00083169B009C131C141A088312D40002303E
:1002F000A000A00B79297C290000023083169B0006
:100300009C131C141A088312D5000230A000A00B05
:1003100087298A290000033083169B009C131C1434
:100320001A088312DA000230A000A00B9529982940
:100330000000203083169B009C131C141A088312A3
:10034000C7000230A000A00BA329A62900000800C6
:1003500083160108C73908388100053083129000E0
:1003600010108B108316011383120B168B16831635
:100370008C10C03083128B041730BB00B113E12DF9
:1003800055085B02031CC7295508DB00CD295B0813
:100390005402031CCD295408DB005B085402031CE3
:1003A000D6298316071183120711DA29831607113C
:1003B000831207155B085E3C031CE129BA015B0848
:1003C000B9005B085E3C0318E9290330BA00FF302E
:1003D000B9003A08023C0318F829FF3A031DF42932
:1003E0003908FC3C0318F8290330BA00FF30B90083
:1003F0003A08A2003908A100A20CA10CA20CA10C81
:10040000A20C21089300A20C220C3039A000150880
:10041000CF39200495000800DB01C021C401080089
:100420003808DB00C0210130C400080031138316F6
:1004300005158312051D202A051083160510831249
:100440001930A000A00B222A252A000083160515CA
:100450008312051D312A05148316051083123117E6
:10046000682A6030A000A00B332A0000831605150F
:1004700083120519402A051483160510472A831292
:1004800005148316051083123117682A8316193054
:100490008312A000A00B4A2A4D2A000083160515DE
:1004A00083120519592A0514831605108312311772
:1004B000682A6030A000A00B5B2A00008316051597
:1004C00083120519682A0514831605108312311743
:1004D000080005148316051005308312DD00A330D3
:1004E000DE001230DE02031C832A5E308400FC3002
:1004F00080050310800C800C00080319832A812AD0
:100500000000800B802ADD0B6F2A08005C0DBE0006
:10051000BE0DBE0DF830BE053B08153C03188C2AF5
:100520000B138B138B1B912A1622BC013E083C0235
:100530000318E72A0314BF0DC00DC10D031CA22A26
:100540001622E32A3113051483160510193083127D
:10055000A000A00BA92AAC2A00008316051583125F
:100560000519B42A3117E32A6030A000A00BB62A7F
:100570000000831605158312051DC32A0510831676
:100580000510CA2A83120514831605108312311729
:10059000E32A831619308312A000A00BCD2AD02A9B
:1005A0000000831605158312051DD82A3117E32A8A
:1005B0006030A000A00BDA2A000083160515831214
:1005C000051DE32A3117311BEB2ABC0A962A692242
:1005D0006922692269220514831605108312BB0162
:1005E0008B10C0308B048B160800C5014A08C93A2D
:1005F00003193D2B193A03195A2B043A0319622B9C
:100600000C3A0319692B293A0319692B2D3A03195E
:10061000742B2C3A0319742B1A3A03197F2B0D3AB9
:100620000319A42BEE3A0319CC2B2B3A03198F2C68
:10063000013A0319B32C073A0319B82C013A0319EC
:10064000DF2C033A0319E82C013A0319F72C163A68
:100650000319052D033A03190E2D013A03191D2D17
:10066000193A03192C2D013A03194C2D1B3A031981
:100670006C2D043A03196C2D7B2D55084B02031C7D
:10068000482B83160711831207155508B800582BFD
:100690004B085402031C522B8316071183120711B7
:1006A000B801582B83160711831207154B08B800A1
:1006B00010227D2D83160711831207155508B800E7
:1006C00010227D2D8316071183120711B8010C2209
:1006D0007D2D440B732B380854020318732BB80379
:1006E0003808DB00C0217D2D440B7E2B55083802D5
:1006F00003187E2BB80A3808DB00C0217D2D4B087B
:10070000103C031CA32B4B08C30006304307DB003F
:100710005B0883169B009C131C141A088312B800F4
:1007200038085402031C9B2BB8018316071183124F
:1007300007110C22A32B8316071183120715102211
:100740003808DB00C0217D2D4B08103C031CCB2B4F
:100750000B138B138B1BA92B06304B07DB000B08ED
:10076000A0008B135B0883169B0083123808831646
:100770009A009C131C1555309D00AA309D009C14B6
:100780009C18C02B1C11831220088B04C72BC82B6C
:100790000000C0308B047D2D053083169B009C1318
:1007A0001C141A088312DB00043083169B009C1370
:1007B0001C141A088312DC005B08D0005C08CF0010
:1007C0004B080F39D1004B0810390319EB2B103AA5
:1007D00003193F2C8E2CA3010130A2005108A00068
:1007E0000319F72B0310A20DA30DA00BF22B220867
:1007F000FF3AA000FF30A3062008CF052308D0054C
:100800004F08DB000B08A0008B13043083169B00FD
:1008100083124F0883169A009C131C1555309D00B7
:10082000AA309D009C149C18132C1C1183122008C4
:100830008B040230A000A00B1B2C1E2C00005008C3
:10084000DB000B08A0008B13053083169B0083127E
:10085000500883169A009C131C1555309D00AA3031
:100860009D009C149C18322C1C11831220088B04B0
:100870000230A000A00B3A2C3D2C00008E2CA301CE
:100880000130A2005108A00003194B2C0310A20D47
:10089000A30DA00B462C2208CF042308D0044F0838
:1008A000DB000B08A0008B13043083169B0083121F
:1008B0004F0883169A009C131C1555309D00AA30D2
:1008C0009D009C149C18622C1C11831220088B0420
:1008D0000230A000A00B6A2C6D2C00005008DB0039
:1008E0000B08A0008B13053083169B008312500861
:1008F00083169A009C131C1555309D00AA309D004C
:100900009C149C18812C1C11831220088B0402302B
:10091000A000A00B892C8C2C00008E2C7D2D4B0868
:100920003F3C031CB22C4B08DA000B08A0008B13D1
:10093000033083169B0083125A0883169A009C1377
:100940001C1555309D00AA309D009C149C18A62CA7
:100950001C11831220088B040230A000A00BAE2CC7
:10096000B12C00007D2D4B08D7000130D9007D2D22
:100970004B08D800590BDD2C5808203C031CDD2CFB
:10098000D9010B08A0008B13580883169B00831213
:10099000570883169A009C131C1555309D00AA30E9
:1009A0009D009C149C18D22C1C11831220088B04CF
:1009B0000630A000A00BDA2C000048217D2D5A083B
:1009C000C1005708C0000230DB00DC0086227D2D0C
:1009D0004B08D8005808203C031CF62C58088316F6
:1009E0009B009C131C141A088312D7007D2D5A08F3
:1009F000C10083169B019C131C141A088312C000AB
:100A00000230DB00DC0086227D2D5A08C100083050
:100A1000C0000230DB00DC0086227D2D5A08C100B8
:100A2000073083169B009C131C141A088312C00005
:100A30000230DB00DC0086227D2D5A08C100083020
:100A400083169B009C131C141A088312C0000230EA
:100A5000DB00DC0086227D2D4B08D5000B08A000B2
:100A60008B13023083169B008312550883169A005D
:100A70009C131C1555309D00AA309D009C149C1899
:100A80003F2D1C11831220088B040230A000A00B04
:100A9000472D4A2D00007D2D4B08D4000B08A000E7
:100AA0008B13013083169B008312540883169A001F
:100AB0009C131C1555309D00AA309D009C149C1859
:100AC0005F2D1C11831220088B040230A000A00BA4
:100AD000672D6A2D00007D2D5A08C100193083163C
:100AE0009B009C131C141A088312C0000230DB0008
:100AF000DC0086227D2D0130C500C508031D962D22
:100B00000B08A0008B1383169B01831238088316F1
:100B10009A009C131C1555309D00AA309D009C1412
:100B20009C18902D1C11831220088B040230DB00CE
:100B30005B30840000080319AB2D0130A100A00137
:100B4000A00BA02DA10B9F2D4A30A000A00BA62D1D
:100B5000A92D800B9D2DC601080003081F398300B5
:100B6000613083168F000F0804308312BD003113EB
:100B7000D430C7000130CE002C30CD00D201D301DB
:100B80000A30DA00CC111F13003083169100831253
:100B90009A0107309900AC011814113098000A30FE
:100BA000A0008101813084000008F03907388000FE
:100BB00064000008F739A019F039200480004821AA
:100BC000A829053083169B009C131C141A08831255
:100BD000DB00043083169B009C131C141A0883123C
:100BE000DC005B08D0005C08CF0083169B019C13DF
:100BF0001C141A088312D60056085402031C072E30
:100C00008316071183120711B8010C22112E8316C7
:100C10000711831207155608B8003808DB00C021F9
:100C20001022CC1D152E6400CC11B11F432E490F8C
:100C30001B2EF522422E5A084902031D212EF522B1
:100C4000422E47084902031D272EF522422E49084D
:100C5000BF3C0318422E4908CF3C031C422E4908D2
:100C60000F39D1005008A3004F08A2005108A0007E
:100C700003193F2E0310A30CA20CA00B3A2E22083E
:100C80002218F522B113311F4F2E5208043C031CC9
:100C90004F2ED20A0230DB00DC008622502ED20119
:040CA000112E6300AE
:104200006400000064000A000100000000001400C7
:104210001E00320046005A006400230028002D00D2
:0C4220004B0019003C0041005F006400EE
:02424000D400A8
:02400E00EC3391
:00000001FF
;PIC16F684
;CRC=6F9E  CREATED="28-Jun-22 11:46"
